{
  "contractName": "Verification",
  "abi": [
    {
      "constant": true,
      "inputs": [
        {
          "name": "",
          "type": "bytes32"
        }
      ],
      "name": "documents",
      "outputs": [
        {
          "name": "timestamp",
          "type": "uint256"
        },
        {
          "name": "ipfs_hash",
          "type": "bytes"
        }
      ],
      "payable": false,
      "stateMutability": "view",
      "type": "function"
    },
    {
      "constant": true,
      "inputs": [
        {
          "name": "",
          "type": "address"
        },
        {
          "name": "",
          "type": "uint256"
        }
      ],
      "name": "users",
      "outputs": [
        {
          "name": "",
          "type": "bytes"
        }
      ],
      "payable": false,
      "stateMutability": "view",
      "type": "function"
    },
    {
      "constant": false,
      "inputs": [
        {
          "name": "_id",
          "type": "bytes"
        },
        {
          "name": "_ipfs",
          "type": "bytes"
        }
      ],
      "name": "addDocument",
      "outputs": [],
      "payable": false,
      "stateMutability": "nonpayable",
      "type": "function"
    },
    {
      "constant": false,
      "inputs": [
        {
          "name": "x",
          "type": "string"
        }
      ],
      "name": "sendHash",
      "outputs": [],
      "payable": false,
      "stateMutability": "nonpayable",
      "type": "function"
    },
    {
      "constant": true,
      "inputs": [],
      "name": "getHash",
      "outputs": [
        {
          "name": "x",
          "type": "string"
        }
      ],
      "payable": false,
      "stateMutability": "view",
      "type": "function"
    }
  ],
  "bytecode": "0x608060405234801561001057600080fd5b50610b15806100206000396000f3fe60806040526004361061006d576000357c0100000000000000000000000000000000000000000000000000000000900463ffffffff1680632b2805db1461007257806354a02f9e1461012d578063805674d614610201578063d13319c414610360578063dfb29935146103f0575b600080fd5b34801561007e57600080fd5b506100ab6004803603602081101561009557600080fd5b81019080803590602001909291905050506104b8565b6040518083815260200180602001828103825283818151815260200191508051906020019080838360005b838110156100f15780820151818401526020810190506100d6565b50505050905090810190601f16801561011e5780820380516001836020036101000a031916815260200191505b50935050505060405180910390f35b34801561013957600080fd5b506101866004803603604081101561015057600080fd5b81019080803573ffffffffffffffffffffffffffffffffffffffff16906020019092919080359060200190929190505050610574565b6040518080602001828103825283818151815260200191508051906020019080838360005b838110156101c65780820151818401526020810190506101ab565b50505050905090810190601f1680156101f35780820380516001836020036101000a031916815260200191505b509250505060405180910390f35b34801561020d57600080fd5b5061035e6004803603604081101561022457600080fd5b810190808035906020019064010000000081111561024157600080fd5b82018360208201111561025357600080fd5b8035906020019184600183028401116401000000008311171561027557600080fd5b91908080601f016020809104026020016040519081016040528093929190818152602001838380828437600081840152601f19601f820116905080830192505050505050509192919290803590602001906401000000008111156102d857600080fd5b8201836020820111156102ea57600080fd5b8035906020019184600183028401116401000000008311171561030c57600080fd5b91908080601f016020809104026020016040519081016040528093929190818152602001838380828437600081840152601f19601f82011690508083019250505050505050919291929050505061063c565b005b34801561036c57600080fd5b506103756107bb565b6040518080602001828103825283818151815260200191508051906020019080838360005b838110156103b557808201518184015260208101905061039a565b50505050905090810190601f1680156103e25780820380516001836020036101000a031916815260200191505b509250505060405180910390f35b3480156103fc57600080fd5b506104b66004803603602081101561041357600080fd5b810190808035906020019064010000000081111561043057600080fd5b82018360208201111561044257600080fd5b8035906020019184600183028401116401000000008311171561046457600080fd5b91908080601f016020809104026020016040519081016040528093929190818152602001838380828437600081840152601f19601f82011690508083019250505050505050919291929050505061085d565b005b6002602052806000526040600020600091509050806000015490806001018054600181600116156101000203166002900480601f01602080910402602001604051908101604052809291908181526020018280546001816001161561010002031660029004801561056a5780601f1061053f5761010080835404028352916020019161056a565b820191906000526020600020905b81548152906001019060200180831161054d57829003601f168201915b5050505050905082565b60016020528160005260406000208181548110151561058f57fe5b90600052602060002001600091509150508054600181600116156101000203166002900480601f0160208091040260200160405190810160405280929190818152602001828054600181600116156101000203166002900480156106345780601f1061060957610100808354040283529160200191610634565b820191906000526020600020905b81548152906001019060200180831161061757829003601f168201915b505050505081565b600160003373ffffffffffffffffffffffffffffffffffffffff1673ffffffffffffffffffffffffffffffffffffffff1681526020019081526020016000208190806001815401808255809150509060018203906000526020600020016000909192909190915090805190602001906106b6929190610877565b5050606060016040519080825280602002602001820160405280156106ea5781602001602082028038833980820191505090505b509050338160008151811015156106fd57fe5b9060200190602002019073ffffffffffffffffffffffffffffffffffffffff16908173ffffffffffffffffffffffffffffffffffffffff16815250506060604051908101604052804281526020018381526020018281525060026000858051906020012081526020019081526020016000206000820151816000015560208201518160010190805190602001906107959291906108f7565b5060408201518160020190805190602001906107b2929190610977565b50905050505050565b606060008054600181600116156101000203166002900480601f0160208091040260200160405190810160405280929190818152602001828054600181600116156101000203166002900480156108535780601f1061082857610100808354040283529160200191610853565b820191906000526020600020905b81548152906001019060200180831161083657829003601f168201915b5050505050905090565b8060009080519060200190610873929190610a01565b5050565b828054600181600116156101000203166002900490600052602060002090601f016020900481019282601f106108b857805160ff19168380011785556108e6565b828001600101855582156108e6579182015b828111156108e55782518255916020019190600101906108ca565b5b5090506108f39190610a81565b5090565b828054600181600116156101000203166002900490600052602060002090601f016020900481019282601f1061093857805160ff1916838001178555610966565b82800160010185558215610966579182015b8281111561096557825182559160200191906001019061094a565b5b5090506109739190610a81565b5090565b8280548282559060005260206000209081019282156109f0579160200282015b828111156109ef5782518260006101000a81548173ffffffffffffffffffffffffffffffffffffffff021916908373ffffffffffffffffffffffffffffffffffffffff16021790555091602001919060010190610997565b5b5090506109fd9190610aa6565b5090565b828054600181600116156101000203166002900490600052602060002090601f016020900481019282601f10610a4257805160ff1916838001178555610a70565b82800160010185558215610a70579182015b82811115610a6f578251825591602001919060010190610a54565b5b509050610a7d9190610a81565b5090565b610aa391905b80821115610a9f576000816000905550600101610a87565b5090565b90565b610ae691905b80821115610ae257600081816101000a81549073ffffffffffffffffffffffffffffffffffffffff021916905550600101610aac565b5090565b9056fea165627a7a72305820d112999795a6c279e16a71acdca234bb38e3ebc2561774852122459fadbb68ba0029",
  "source": "pragma solidity 0.5.0;\n\ncontract Verification{\n    string ipfsHash;\n     struct Document {\n        uint timestamp;\n        bytes ipfs_hash;\n        address[] signatures;\n    }\nmapping(address => bytes[]) public users; \nmapping(bytes32 => Document) public documents; \n\n    function addDocument(bytes memory _id, bytes memory _ipfs) public {\n        users[msg.sender].push(_ipfs); \n        address[] memory sender = new address[](1);\n        sender[0] = msg.sender;\n        documents[keccak256(_id)] = Document(block.timestamp, _ipfs, sender);\n    }\n\n    function sendHash(string memory x) public {\n        ipfsHash = x;\n    }\n    function getHash() public view returns(string memory x){\n        return ipfsHash;\n    }\n\n\n}",
  "sourcePath": "/home/urjit/Documents/Blockchain/Etherium/SignContract/contracts/Verification.sol",
  "compiler": {
    "name": "solc",
    "version": "0.5.0+commit.1d4f565a.Emscripten.clang"
  },
  "schemaVersion": "3.0.11",
  "updatedAt": "2019-08-02T13:06:45.873Z",
  "devdoc": {
    "methods": {}
  },
  "userdoc": {
    "methods": {}
  }
}